S012000066696E616C5F636F64652E737265630E
S11300005CC000006AC0000068C0000066C0000058
S113001064C0000062C0000060C000005EC0000058
S11300205CC000005AC0000058C0000056C0000068
S113003054C0000052C0000050C000004EC0000078
S11300404CC000004AC0000048C0000046C0000088
S113005044C0000042C0000040C000003EC0000098
S11300603CC000003AC0000038C0000036C00000A8
S113007034C0000032C0000030C000002EC00000B8
S11300802CC000002AC0000028C00000084AD73B4A
S11300903BCE016E84BCBFFDC12F3D6C74319ABD53
S11300A056833DDA3D00C77F11BED9E4BB4C3E9177
S11300B06BAAAABE000000803F0011241FBECFEF30
S11300C0D0E1DEBFCDBF21E0A0E0B1E001C01D92D0
S11300D0AC31B207E1F7ADD128C692CFA0E7B0E0CA
S11300E01C92E1E7F0E0108280818E7F8083808122
S11300F08D7F8083E4E7F0E080818E7F808380E2DF
S11301008C93089594EA90937400E4E7F0E090816E
S11301109923ECF790917100987F903199F4809332
S1130120730084E880937400E4E7F0E0808188231E
S1130130ECF780917100887F803431F0803231F0A7
S113014083E0089580E0089581E0089582E00895B1
S113015084E980937400E4E7F0E0808184FDFDCFBE
S11301600895BF92CF92DF92EF92FF920F931F9365
S1130170CF93DF93B82EC4E7D0E001E710E00F2E51
S1130180F4EADF2EF02D0F2EF3E7EF2EF12CF02DF5
S11301900F2EF4E8CF2EF02DD88298819923ECF716
S11301A0F8019081987F9830B9F7F701B082C8823E
S11301B098819923ECF7F8019081987F983111F098
S11301C0C7DFEACFDF91CF911F910F91FF90EF909E
S11301D0DF90CF90BF9008958093730084E880935C
S11301E07400E4E7F0E080818823ECF780917100EB
S11301F0887F883221F0803321F082E0089580E006
S1130200089581E008952FE789EA93E02150804022
S11302109040E1F700C0000080EDA3DF89E1DCDF5E
S113022087E0DADF95DF80ED9CDF8BE6D5DF81E0C8
S1130230D3DF8EDF80ED95DF8AE1CEDF80E0CCDF97
S113024087DF80ED8EDF8BE1C7DF88E1C5DF80DFEC
S113025080ED87DF88E3C0DF81E0BEDF79CF0895DA
S113026080ED7FDF8BE3B8DF81ED4CCF089584EC24
S113027080937400E4E7F0E080818823ECF78091B8
S11302807300089584E880937400E4E7F0E08081CB
S11302908823ECF7809173000895CF93E1DFE7DFC3
S11302A0C82FE5DF6C2F70E0762F6627682B072EAA
S11302B0000C880B990BD1D360931801709319012A
S11302C080931A0190931B01D2DFC82FD0DF6C2FCB
S11302D070E0762F6627682B072E000C880B990B8D
S11302E0BCD360931401709315018093160190930D
S11302F01701BDDFC82FBBDF6C2F70E0762F662798
S1130300682B072E000C880B990BA7D36093100160
S1130310709311018093120190931301A8DFC82FE9
S1130320A6DF6C2F70E0762F6627682B072E000C53
S1130330880B990B92D360930C0170930D018093F9
S11303400E0190930F0193DFC82F91DF6C2F70E0A3
S1130350762F6627682B072E000C880B990B7DD30C
S1130360609308017093090180930A0190930B0133
S11303707EDFC82F7CDF6C2F70E0762F6627682B1A
S1130380072E000C880B990B68D3609304017093BB
S11303900501809306019093070169DFC82F72DF7E
S11303A06C2F70E0762F6627682B072E000C880BC5
S11303B0990B53D360930001709301018093020160
S11303C090930301C5DECF9108952AB128612AB91B
S11303D0E5E9F0E0208126602083DC01CB01880F71
S11303E0991FAA1FBB1F880F991FAA1FBB1F9C011F
S11303F0AD01220F331F441F551F220F331F441F0B
S1130400551F60E072E18AE790E06DD48FEF820FB0
S113041089B9DA01C9010197A109B109892F9A2F74
S1130420AB2FBB278093900008958CB95D9BFECFC2
S11304300895CF93DF93CDB7DEB760970FB6F894E6
S1130440DEBF0FBECDBF4ADEDEDE60EC72E180E0CF
S113045090E0BBDF19821A821B821C821D821E82DD
S11304601F8218861ADF20E030E040E858E36091EC
S113047018017091190180911A0190911B01CDD33B
S113048069877A878B879C87609318017093190119
S113049080931A0190931B0120E030E040E858E378
S11304A060911401709115018091160190911701CA
S11304B0B4D32B013C016093140170931501809314
S11304C016019093170120E030E040E858E3609172
S11304D010017091110180911201909113019DD32B
S11304E06B017C01609310017093110180931201E0
S11304F09093130123E333E343E851E4609108014B
S11305007091090180910A0190910B013CD24B0139
S11305105C01609308017093090180930A01909330
S11305200B0123E333E343E851E460910401709148
S11305300501809106019091070125D26D877E8780
S11305408F87988B60930401709305018093060153
S11305509093070123E333E343E851E460910001FE
S11305607091010180910201909103010CD260937A
S11305700001709301018093020190930301A30190
S11305809201C701B601A8D12B013C01A701960134
S113059069857A858B859C859FD16B017C012AE0D6
S11305A037ED43EA5BE3C501B40137D320E030E023
S11305B044E353E432D326E53EE049E450E4E3D196
S11305C02D813E814F81588514D126E636E646E6D4
S11305D05FE323D34B015C012AE037ED43EA5BE39D
S11305E06D857E858F85988918D320E030E044E3BB
S11305F053E413D326E53EE049E450E4C4D1298111
S11306003A814B815C81F5D026E636E646E65FE327
S113061004D369837A838B839C8320E030E044E3B2
S113062053E4C301B201F9D226E53EE049E450E4C3
S1130630AAD120ED3CEC4CEC5DE3EFD2A501940192
S1130640D8D06D837E838F83988720E030E044E3A5
S113065053E4C701B601E1D226E53EE049E450E4A3
S113066092D120ED3CEC4CEC5DE3D7D229813A8168
S11306704B815C81BED069837A838B839C8320E029
S113068030E0A9017CD1882324F520E030E048EC57
S113069052EC69817A818B819C81B4D21816CCF496
S11306A020E030E042E852E46D817E818F819885BC
S11306B0A9D2181674F420E030E04EEB52E46D81B8
S11306C07E818F8198855BD188231CF48CE4ADDE18
S11306D0C9CE20E030E048EC52E469817A818B8114
S11306E09C814DD188231CF520E030E0A90169816B
S11306F07A818B819C8186D21816CCF420E030E07C
S113070042E852E46D817E818F8198857BD21816F0
S113071074F420E030E04EEB52E46D817E818F81F1
S113072098852DD188231CF482E57FDE9BCE20E0C2
S113073030E040E251E469817A818B819C811FD150
S1130740882324F520E030E040EA51EC69817A8185
S11307508B819C8157D21816CCF420E030E048E419
S113076052EC6D817E818F8198854CD2181674F479
S113077020E030E044EB52E46D817E818F819885E6
S1130780FED088231CF486E450DE6CCE20E030E0FA
S113079040E451E469817A818B819C81F0D0882383
S11307A024F520E030E040EF51EC69817A818B81BF
S11307B09C8128D21816CCF420E030E044EB52E4BB
S11307C06D817E818F8198851DD2181674F420E086
S11307D030E048E453E46D817E818F819885CFD0E9
S11307E088231CF482E421DE3DCE83E51EDE3ACE6E
S11307F05058BB27AA270ED0CBC1BCD130F0C1D1F1
S113080020F031F49F3F11F41EF48CC10EF4E095F6
S1130810E7FB82C1E92FCDD180F3BA1762077307D2
S11308208407950718F071F49EF5E5C10EF4E09580
S11308300B2EBA2FA02D0B01B90190010C01CA0196
S1130840A0011124FF27591B99F0593F50F4503E41
S113085068F11A16F040A22F232F342F4427585F33
S1130860F3CF469537952795A795F0405395C9F74B
S11308707EF41F16BA0B620B730B840BBAF0915003
S1130880A1F0FF0FBB1F661F771F881FC2F70EC0A2
S1130890BA0F621F731F841F48F487957795679575
S11308A0B795F7959E3F08F0B3CF9395880F08F05E
S11308B09927EE0F9795879508955CD158F080E8B5
S11308C091E009F49EEF5DD128F040E851E059F43D
S11308D05EEF09C027C18FC1E92FE0786AD168F3C0
S11308E0092E052AC1F3261737074807590738F098
S11308F00E2E07F8E02569F0E025E0640AC0EF63F6
S113090007F8009407FADB01B9019D01DC01CA0173
S1130910AD01EF9347D03CD10AD05F91552331F01C
S11309202BED3FE049E450FD49EC63CF0895DF939C
S1130930DD27B92FBF7740E85FE31616170648078F
S11309405B0710F4D92F62D19F938F937F936F939A
S1130950C7D1ECE8F0E0E9D01BD12F913F914F9142
S11309605F9167D1DD2349F09058A2EA2AED3FE078
S113097049EC5FE3D0785D274DDFDF9109C1A8D052
S113098008F481E008950CD003C1FBD040F0F2D00C
S113099030F021F45F3F19F0BFC051112DC1C2C026
S11309A008D198F39923C9F35523B1F3951B550B3B
S11309B0BB27AA2762177307840738F09F5F5F4F2E
S11309C0220F331F441FAA1FA9F333D00E2E3AF06F
S11309D0E0E830D091505040E695001CCAF729D089
S11309E0FE2F27D0660F771F881FBB1F26173707D8
S11309F04807AB07B0E809F0BB0B802DBF01FF2708
S1130A0093585F4F2AF09E3F510568F085C0F4C0AB
S1130A105F3FECF3983EDCF3869577956795B79541
S1130A20F7959F5FC9F7880F911D9695879597F95C
S1130A300895E1E0660F771F881FBB1F62177307D5
S1130A408407BA0720F0621B730B840BBA0BEE1FEA
S1130A5088F7E0950895E89409C097FB3EF49095D3
S1130A608095709561957F4F8F4F9F4F9923A9F083
S1130A70F92F96E9BB279395F69587957795679512
S1130A80B795F111F8CFFAF4BB0F11F460FF1BC056
S1130A906F5F7F4F8F4F9F4F16C0882311F096E9E9
S1130AA011C0772321F09EE8872F762F05C0662397
S1130AB071F096E8862F70E060E02AF09A95660F50
S1130AC0771F881FDAF7880F9695879597F9089509
S1130AD0990F0008550FAA0BE0E8FEEF161617064B
S1130AE0E807F907C0F012161306E407F50798F0B3
S1130AF0621B730B840B950B39F40A2661F0232BCC
S1130B00242B252B21F408950A2609F4A140A69547
S1130B108FEF811D811D089597F99F6780E870E02C
S1130B2060E008959FEF80EC0895DF93CF931F93C7
S1130B300F93FF92EF92DF927B018C01689405C0C2
S1130B40DA2EEF0176D0FE01E894A5912591359136
S1130B5045915591AEF3EF015DDEFE019701A801C9
S1130B60DA9479F7DF90EF90FF900F911F91CF9176
S1130B70DF91089500240A9416161706180609062C
S1130B80089500240A9412161306140605060895FF
S1130B90092E0394000C11F4882352F0BB0F40F487
S1130BA0BF2B11F460FF04C06F5F7F4F8F4F9F4FC7
S1130BB0089557FD9058440F551F59F05F3F71F049
S1130BC04795880F97FB991F61F09F3F79F08795B0
S1130BD00895121613061406551FF2CF4695F1DF39
S1130BE008C0161617061806991FF1CF86957105C9
S1130BF0610508940895E894BB2766277727CB01FD
S1130C0097F9089565DF08F48FEF08959B01AC010F
S1130C1060E070E080E89FE3B6CE0BD0B9CFAADFE6
S1130C2028F0AFDF18F0952309F076CF7BCF11249D
S1130C30E3CFBFDFA0F3959FD1F3950F50E0551F8D
S1130C40629FF001729FBB27F00DB11D639FAA271D
S1130C50F00DB11DAA1F649F6627B00DA11D661F6C
S1130C60829F2227B00DA11D621F739FB00DA11D8D
S1130C70621F839FA00D611D221F749F3327A00D47
S1130C80611D231F849F600D211D822F762F6A2FE3
S1130C9011249F5750408AF0E1F088234AF0EE0F68
S1130CA0FF1FBB1F661F771F881F91505040A9F775
S1130CB09E3F510570F030CF9FCF5F3FECF3983EDD
S1130CC0DCF3869577956795B795F795E7959F5FDC
S1130CD0C1F7FE2B880F911D9695879597F9089576
S1130CE09B01AC019ACFA1E21A2EAA1BBB1BFD01EA
S1130CF00DC0AA1FBB1FEE1FFF1FA217B307E407F7
S1130D00F50720F0A21BB30BE40BF50B661F771F4E
S1130D10881F991F1A9469F760957095809590952E
S1110D209B01AC01BD01CF010895F894FFCFF3
S9030000FC
